:0E0000000C9444000C9400000C9400000C942E
:10000E0000000C9400000C9400000C9400000C9462
:10001E0000000C9400000C9400000C9471000C94E1
:10002E0000000C9400000C9400000C9400000C9442
:10003E0000000C9400000C9400000C9400000C9432
:10004E0000000C9400001027E80364000A00010071
:10005E00001000011000010000000000020000006E
:10006E007365636F6E643D25640080C008000400F4
:10007E0066000200740278000000F894EE27ECBBD4
:10008E00F1E0FBBFEBBFE5BF8DE0A2E0BB27ED9338
:10009E008A95E9F780E098E0A0E6ED930197E9F7FD
:1000AE00EAE7F0E085919591009761F0A591B59101
:1000BE0005901590BF01F00105900D920197E1F7A3
:1000CE00FB01F0CFEFE5EDBFE8E0EEBFC0E6D2E01A
:1000DE000C94BD000A921A92FA926A937A938A93BA
:1000EE009A93AA93BA93EA93FA93EFB7EA93F2012B
:1000FE0031962F01EAE0F0E0E415F50581F4F30105
:10010E0031963F0144245524F5013896E615F7053E
:10011E0031F466247724F40131964F013197CFD014
:10012E00E0E6F2E0FA93EA93EEE6F0E0FA93EA9371
:10013E00F3010E94DE030E940C0484E00E943C0343
:10014E002896E4E0EA93A0E0ADD0A0E6B2E0DAD0E3
:10015E00E991EFBFF991E991B991A991999189919D
:10016E0079916991F990199009901895E7EFEABB8A
:10017E00E0E0EBBBE7BBE1E0E8BBE7E0E4BBE0E0DF
:10018E00E5BBE7E0E1BBE0E0E2BBEDE0E3BFE0E0D2
:10019E00E2BFE0E6ECBFE2E0E9BFA0E1C4D07894B4
:1001AE00E5B3E43041F4B09904C0E4E0F0E05F015F
:1001BE0002C0AA24BB24E2B3E43041F4B09904C0D7
:1001CE00E4E0F0E05F0102C0AA24BB240024601426
:1001DE00700454F00E9489033CF4D401E2E0F0E094
:1001EE000E94F603309709F015C0E1E0E2BB00244F
:1001FE00601470041CF00E948E030CF002C0E4E048
:10020E00E5BB0E948E031CF00E9489030CF002C015
:10021E00E2E0E5BB00246014700464F00E948903E0
:10022E004CF4D401E2E0F0E00E94F603E130A0E0ED
:10023E00FA0709F015C0E1E0E5BB00246014700474
:10024E001CF00E948E030CF002C0E4E0E2BB0E94A0
:10025E008E031CF00E9489030CF002C0E2E0E2BBA8
:10026E009FCFFFCFAA93EBB3EF70AE2FE881E07F65
:10027E00EA2BEBBB82E08A95F1F7DA9A82E08A9557
:10028E00F1F7DA9882E08A95F1F779C0AA93A881FE
:10029E00E9DFE881E295E883A881E4DF81E18A95D0
:1002AE00F1F76DC0AA93E881F0E0EC58FD4FE081C4
:1002BE00A981AE0FEBDFD980C88022960895A2E007
:1002CE000E949303ACE0E2DFA1E00E949303E0E022
:1002DE00CE2EDE2E0895AA93A881AA3021F0E091A9
:1002EE007802DE1648F0E0E0EA93C394AC2DDADF34
:1002FE00A881AA3009F443C0D394D89AA881C6DF46
:10030E00D8983DC0BA93AA931A93A981BA81ED9158
:10031E00A983BA831E2FE03019F0A12FDCDFF5CFB1
:10032E00188123960895AA93EAB3E06FEABBD29A96
:10033E00D09AD19ADA98D898D998E881E093780231
:10034E00E058E0937602E881E054E0937702A4E16E
:10035E00B0E00E94CC030E9499030E9499030E9470
:10036E009903A0E27FDF81E28A95F1F7A8E28EDFA2
:10037E00A4E08CDFA5E88ADFA6E088DFA0DF219667
:10038E000895BA93AA931A930A93AA81BB811296DF
:10039E000E940404309759F1AA81BB8114960E94E1
:1003AE0004048F01309761F00230E0E01E0798F0F0
:1003BE00F80131978F01AA81BB811496ED93FC93BE
:1003CE00AA81BB811296ED91FD913196FE93EE932B
:1003DE003197AC81A083AA81BB810E940404FF23C4
:1003EE002AF0ED91FD913196FE93EE9306C0AA810F
:1003FE00BB81EFEFFFEFED93FC93198108812596FA
:10040E000895BA93AA9326970E94110410E0AC8522
:10041E00BD85E0E0F0E0ED93FC93EA89FB8931962F
:10042E00EA8BFB8B3197E4912E2FE03009F415C146
:10043E00E12FE03039F4253211F411E002C00E94B0
:10044E00A0030AC1E130A9F4253219F40E94A003D9
:10045E0002C112E040E000E02D3211F401E0FCC0D8
:10046E002B3211F44BE2F8C0203211F440E2F4C00A
:10047E0002C0E23039F450E013E0203311F400688A
:10048E00EBC003C0E33009F0E7C0203310F02A338D
:10049E0008F007C0AAE05A9F502DE22FE0535E0FDE
:1004AE00DBC0E22FE33649F40E94A703E889F989FD
:1004BE00A481AA930E94AD03CEC0E33741F40E94FB
:1004CE00A7030E94B3030E9470031E2F0AC0E037D9
:1004DE0061F40E94A7030E94B3030E947C031E2FA7
:1004EE00086002600F7730E034C0E43611F0E93670
:1004FE0011F4046002C0E53731F4E4E5F0E0EE8378
:10050E00FF8315E00CC0E83511F4086003C0E8372E
:10051E0009F0A1C0EEE5F0E0EE83FF8314E002FFE8
:10052E0014C00E94A7030E94BD03AB85AA233AF410
:10053E00EA85FB850E94DA03EA87FB874DE24030AD
:10054E0011F01F5F01C00B7F04C00E94A7030E9421
:10055E00BD0300FD11C0151778F407FF08C002FF98
:10056E0004C00B7F242F115001C020E301C020E2F4
:10057E000E94A0035150EFCF312F01FF17C0303032
:10058E00A1F003FF06C0EE81FF812591EE83FF836C
:10059E0005C0AE81BF812D91AE83BF830E94A003A3
:1005AE00503009F051503150EACF4BC020E3EE816C
:1005BE00FF810E940804E887F987EE81FF81329659
:1005CE00EE83FF83E885F985AA85BB85AE17BF0745
:1005DE0050F02F5FA885B985EA85FB85EA1BFB0BDA
:1005EE00EA87FB87EFCF2A3328F003FF02C0295F8B
:1005FE0001C0295D04FD1AC0213320F4A885B985F8
:10060E00119709F409C0531710F000FF01C013C071
:10061E0020E207FF0BC020E3006102FF07C00B7F43
:10062E004A930E94AD03503009F051500E94A0032E
:10063E00503009F051503150A885B985129708F005
:10064E00B5CF00FF08C0503031F05150E0E2EA93D0
:10065E000E94AD03F8CF10E0E0CEAC85BD850E94C0
:10066E0004040E94180464960895FF92F82E2697AB
:10067E000E9413040E94C503309719F4EFEFFFEFA9
:10068E0023C0DE0116960E94D6038D010E94C5037B
:10069E00EE83FF83E0E0E887E987DE011A960E9489
:1006AE00D6030E940404FA93EA931A930A93E8EC91
:1006BE00F1E0FA93EA93DE011A96A3DE9F01AE8172
:1006CE00BF81E0E0EC93F9010E941A042A96FF9094
:1006DE000895BA93AA93A991B991EE27FF276D9128
:1006EE00662311F03196FBCF0895BA93AA93AA27E9
:1006FE00BB27E991F9910590002011F01196FBCFDF
:10070E00FD010895F50138966E167F060895F501E0
:10071E0036966E167F0608950E944D01A3E0B0E056
:10072E000C94CC03A0E30E94390181E28A95F1F783
:10073E0008952A93AD85BE85EF85F88909950895AC
:10074E00E889F9893497E88BF98B0895AD85BE85D4
:10075E00EF85F88909950895A889B98914960E949C
:10076E000404EE83FF83AE81BF810895A889B98901
:10077E0014960E940404EA87FB870895DE011C96F6
:10078E000E94D6030E9404040895109639F0A8958D
:10079E008AEF90E00197F1F71197C9F708950024B9
:1007AE00AF0DB01D0895F195E195F04008956F2FAE
:1007BE00660F660B762F08950024112490E1AA0F80
:1007CE00BB1F001C111C0E1A1F0A18F40E0E1F1E42
:1007DE0001C0A1609A9599F7FD01D0010895E894A2
:1007EE00B7FF04C0A095B09511966894F7FDDBDFB6
:1007FE00E3DFFD010EF4D7DF0895ED91FC91119723
:10080E0008950590F491E02D08957A936A93FA93E2
:10081E00EA9308955A934A933A932A931A930A9312
:10082E0008955D814C813B812A811981088108954B
:00000001FF
